{
  "contractName": "Exchange",
  "abi": [
    {
      "inputs": [
        {
          "internalType": "address",
          "name": "_feeAccount",
          "type": "address"
        },
        {
          "internalType": "uint256",
          "name": "_feePercent",
          "type": "uint256"
        }
      ],
      "stateMutability": "nonpayable",
      "type": "constructor"
    },
    {
      "anonymous": false,
      "inputs": [
        {
          "indexed": false,
          "internalType": "address",
          "name": "token",
          "type": "address"
        },
        {
          "indexed": false,
          "internalType": "address",
          "name": "user",
          "type": "address"
        },
        {
          "indexed": false,
          "internalType": "uint256",
          "name": "amount",
          "type": "uint256"
        },
        {
          "indexed": false,
          "internalType": "uint256",
          "name": "balance",
          "type": "uint256"
        }
      ],
      "name": "Deposit",
      "type": "event"
    },
    {
      "anonymous": false,
      "inputs": [
        {
          "indexed": false,
          "internalType": "uint256",
          "name": "id",
          "type": "uint256"
        },
        {
          "indexed": false,
          "internalType": "address",
          "name": "user",
          "type": "address"
        },
        {
          "indexed": false,
          "internalType": "address",
          "name": "tokenGet",
          "type": "address"
        },
        {
          "indexed": false,
          "internalType": "uint256",
          "name": "amountGet",
          "type": "uint256"
        },
        {
          "indexed": false,
          "internalType": "address",
          "name": "tokenGive",
          "type": "address"
        },
        {
          "indexed": false,
          "internalType": "uint256",
          "name": "amountGive",
          "type": "uint256"
        },
        {
          "indexed": false,
          "internalType": "uint256",
          "name": "timestamp",
          "type": "uint256"
        }
      ],
      "name": "Order",
      "type": "event"
    },
    {
      "anonymous": false,
      "inputs": [
        {
          "indexed": false,
          "internalType": "address",
          "name": "token",
          "type": "address"
        },
        {
          "indexed": false,
          "internalType": "address",
          "name": "user",
          "type": "address"
        },
        {
          "indexed": false,
          "internalType": "uint256",
          "name": "amount",
          "type": "uint256"
        },
        {
          "indexed": false,
          "internalType": "uint256",
          "name": "balance",
          "type": "uint256"
        }
      ],
      "name": "Withdraw",
      "type": "event"
    },
    {
      "stateMutability": "nonpayable",
      "type": "fallback"
    },
    {
      "inputs": [],
      "name": "feeAccount",
      "outputs": [
        {
          "internalType": "address",
          "name": "",
          "type": "address"
        }
      ],
      "stateMutability": "view",
      "type": "function"
    },
    {
      "inputs": [],
      "name": "feePercent",
      "outputs": [
        {
          "internalType": "uint256",
          "name": "",
          "type": "uint256"
        }
      ],
      "stateMutability": "view",
      "type": "function"
    },
    {
      "inputs": [],
      "name": "orderCount",
      "outputs": [
        {
          "internalType": "uint256",
          "name": "",
          "type": "uint256"
        }
      ],
      "stateMutability": "view",
      "type": "function"
    },
    {
      "inputs": [
        {
          "internalType": "uint256",
          "name": "",
          "type": "uint256"
        }
      ],
      "name": "orders",
      "outputs": [
        {
          "internalType": "uint256",
          "name": "id",
          "type": "uint256"
        },
        {
          "internalType": "address",
          "name": "user",
          "type": "address"
        },
        {
          "internalType": "address",
          "name": "tokenGet",
          "type": "address"
        },
        {
          "internalType": "uint256",
          "name": "amountGet",
          "type": "uint256"
        },
        {
          "internalType": "address",
          "name": "tokenGive",
          "type": "address"
        },
        {
          "internalType": "uint256",
          "name": "amountGive",
          "type": "uint256"
        },
        {
          "internalType": "uint256",
          "name": "timestamp",
          "type": "uint256"
        }
      ],
      "stateMutability": "view",
      "type": "function"
    },
    {
      "inputs": [
        {
          "internalType": "address",
          "name": "",
          "type": "address"
        },
        {
          "internalType": "address",
          "name": "",
          "type": "address"
        }
      ],
      "name": "tokens",
      "outputs": [
        {
          "internalType": "uint256",
          "name": "",
          "type": "uint256"
        }
      ],
      "stateMutability": "view",
      "type": "function"
    },
    {
      "inputs": [],
      "name": "depositEther",
      "outputs": [],
      "stateMutability": "payable",
      "type": "function"
    },
    {
      "inputs": [
        {
          "internalType": "uint256",
          "name": "_amount",
          "type": "uint256"
        }
      ],
      "name": "withdrawEther",
      "outputs": [],
      "stateMutability": "nonpayable",
      "type": "function"
    },
    {
      "inputs": [
        {
          "internalType": "address",
          "name": "_token",
          "type": "address"
        },
        {
          "internalType": "uint256",
          "name": "_amount",
          "type": "uint256"
        }
      ],
      "name": "depositToken",
      "outputs": [],
      "stateMutability": "nonpayable",
      "type": "function"
    },
    {
      "inputs": [
        {
          "internalType": "address",
          "name": "_token",
          "type": "address"
        },
        {
          "internalType": "uint256",
          "name": "_amount",
          "type": "uint256"
        }
      ],
      "name": "withdrawToken",
      "outputs": [],
      "stateMutability": "nonpayable",
      "type": "function"
    },
    {
      "inputs": [
        {
          "internalType": "address",
          "name": "_token",
          "type": "address"
        },
        {
          "internalType": "address",
          "name": "_user",
          "type": "address"
        }
      ],
      "name": "balanceOf",
      "outputs": [
        {
          "internalType": "uint256",
          "name": "",
          "type": "uint256"
        }
      ],
      "stateMutability": "view",
      "type": "function"
    },
    {
      "inputs": [
        {
          "internalType": "address",
          "name": "_tokenGet",
          "type": "address"
        },
        {
          "internalType": "uint256",
          "name": "_amountGet",
          "type": "uint256"
        },
        {
          "internalType": "address",
          "name": "_tokenGive",
          "type": "address"
        },
        {
          "internalType": "uint256",
          "name": "_amountGive",
          "type": "uint256"
        }
      ],
      "name": "makeOrder",
      "outputs": [],
      "stateMutability": "nonpayable",
      "type": "function"
    }
  ],
  "bytecode": "0x60806040523480156200001157600080fd5b50604051620015e2380380620015e283398181016040528101906200003791906200012b565b816000806101000a81548173ffffffffffffffffffffffffffffffffffffffff021916908373ffffffffffffffffffffffffffffffffffffffff16021790555080600181905550505062000172565b600080fd5b600073ffffffffffffffffffffffffffffffffffffffff82169050919050565b6000620000b8826200008b565b9050919050565b620000ca81620000ab565b8114620000d657600080fd5b50565b600081519050620000ea81620000bf565b92915050565b6000819050919050565b6200010581620000f0565b81146200011157600080fd5b50565b6000815190506200012581620000fa565b92915050565b6000806040838503121562000145576200014462000086565b5b60006200015585828601620000d9565b9250506020620001688582860162000114565b9150509250929050565b61146080620001826000396000f3fe6080604052600436106100a05760003560e01c80637fd6f15c116100645780637fd6f15c1461019857806398ea5fca146101c35780639a5c90aa146101cd5780639e281a98146101f6578063a85c38ef1461021f578063f7888aec14610262576100a1565b80632453ffa8146100b3578063338b5dea146100de5780633bed33ce14610107578063508493bc1461013057806365e17c9d1461016d576100a1565b5b3480156100ad57600080fd5b50600080fd5b3480156100bf57600080fd5b506100c861029f565b6040516100d59190611010565b60405180910390f35b3480156100ea57600080fd5b50610105600480360381019061010091906110ba565b6102a5565b005b34801561011357600080fd5b5061012e600480360381019061012991906110fa565b61052c565b005b34801561013c57600080fd5b5061015760048036038101906101529190611127565b6107c1565b6040516101649190611010565b60405180910390f35b34801561017957600080fd5b506101826107e6565b60405161018f9190611176565b60405180910390f35b3480156101a457600080fd5b506101ad61080a565b6040516101ba9190611010565b60405180910390f35b6101cb610810565b005b3480156101d957600080fd5b506101f460048036038101906101ef9190611191565b6109d4565b005b34801561020257600080fd5b5061021d600480360381019061021891906110ba565b610bc0565b005b34801561022b57600080fd5b50610246600480360381019061024191906110fa565b610ece565b60405161025997969594939291906111f8565b60405180910390f35b34801561026e57600080fd5b5061028960048036038101906102849190611127565b610f70565b6040516102969190611010565b60405180910390f35b60045481565b600073ffffffffffffffffffffffffffffffffffffffff168273ffffffffffffffffffffffffffffffffffffffff16036102de57600080fd5b8173ffffffffffffffffffffffffffffffffffffffff166323b872dd3330846040518463ffffffff1660e01b815260040161031b93929190611267565b6020604051808303816000875af115801561033a573d6000803e3d6000fd5b505050506040513d601f19601f8201168201806040525081019061035e91906112d6565b61036757600080fd5b80600260008473ffffffffffffffffffffffffffffffffffffffff1673ffffffffffffffffffffffffffffffffffffffff16815260200190815260200160002060003373ffffffffffffffffffffffffffffffffffffffff1673ffffffffffffffffffffffffffffffffffffffff168152602001908152602001600020546103ef9190611332565b600260008473ffffffffffffffffffffffffffffffffffffffff1673ffffffffffffffffffffffffffffffffffffffff16815260200190815260200160002060003373ffffffffffffffffffffffffffffffffffffffff1673ffffffffffffffffffffffffffffffffffffffff168152602001908152602001600020819055507fdcbc1c05240f31ff3ad067ef1ee35ce4997762752e3a095284754544f4c709d7823383600260008773ffffffffffffffffffffffffffffffffffffffff1673ffffffffffffffffffffffffffffffffffffffff16815260200190815260200160002060003373ffffffffffffffffffffffffffffffffffffffff1673ffffffffffffffffffffffffffffffffffffffff168152602001908152602001600020546040516105209493929190611388565b60405180910390a15050565b80600260008073ffffffffffffffffffffffffffffffffffffffff1673ffffffffffffffffffffffffffffffffffffffff16815260200190815260200160002060003373ffffffffffffffffffffffffffffffffffffffff1673ffffffffffffffffffffffffffffffffffffffff1681526020019081526020016000205410156105b557600080fd5b80600260008073ffffffffffffffffffffffffffffffffffffffff1673ffffffffffffffffffffffffffffffffffffffff16815260200190815260200160002060003373ffffffffffffffffffffffffffffffffffffffff1673ffffffffffffffffffffffffffffffffffffffff1681526020019081526020016000205461063d91906113cd565b600260008073ffffffffffffffffffffffffffffffffffffffff1673ffffffffffffffffffffffffffffffffffffffff16815260200190815260200160002060003373ffffffffffffffffffffffffffffffffffffffff1673ffffffffffffffffffffffffffffffffffffffff168152602001908152602001600020819055503373ffffffffffffffffffffffffffffffffffffffff166108fc829081150290604051600060405180830381858888f19350505050158015610703573d6000803e3d6000fd5b507ff341246adaac6f497bc2a656f546ab9e182111d630394f0c57c710a59a2cb56760003383600260008073ffffffffffffffffffffffffffffffffffffffff1673ffffffffffffffffffffffffffffffffffffffff16815260200190815260200160002060003373ffffffffffffffffffffffffffffffffffffffff1673ffffffffffffffffffffffffffffffffffffffff168152602001908152602001600020546040516107b69493929190611388565b60405180910390a150565b6002602052816000526040600020602052806000526040600020600091509150505481565b60008054906101000a900473ffffffffffffffffffffffffffffffffffffffff1681565b60015481565b34600260008073ffffffffffffffffffffffffffffffffffffffff1673ffffffffffffffffffffffffffffffffffffffff16815260200190815260200160002060003373ffffffffffffffffffffffffffffffffffffffff1673ffffffffffffffffffffffffffffffffffffffff168152602001908152602001600020546108989190611332565b600260008073ffffffffffffffffffffffffffffffffffffffff1673ffffffffffffffffffffffffffffffffffffffff16815260200190815260200160002060003373ffffffffffffffffffffffffffffffffffffffff1673ffffffffffffffffffffffffffffffffffffffff168152602001908152602001600020819055507fdcbc1c05240f31ff3ad067ef1ee35ce4997762752e3a095284754544f4c709d760003334600260008073ffffffffffffffffffffffffffffffffffffffff1673ffffffffffffffffffffffffffffffffffffffff16815260200190815260200160002060003373ffffffffffffffffffffffffffffffffffffffff1673ffffffffffffffffffffffffffffffffffffffff168152602001908152602001600020546040516109ca9493929190611388565b60405180910390a1565b60016004546109e39190611332565b6004819055506040518060e0016040528060045481526020013373ffffffffffffffffffffffffffffffffffffffff1681526020018573ffffffffffffffffffffffffffffffffffffffff1681526020018481526020018373ffffffffffffffffffffffffffffffffffffffff168152602001828152602001428152506003600060045481526020019081526020016000206000820151816000015560208201518160010160006101000a81548173ffffffffffffffffffffffffffffffffffffffff021916908373ffffffffffffffffffffffffffffffffffffffff16021790555060408201518160020160006101000a81548173ffffffffffffffffffffffffffffffffffffffff021916908373ffffffffffffffffffffffffffffffffffffffff1602179055506060820151816003015560808201518160040160006101000a81548173ffffffffffffffffffffffffffffffffffffffff021916908373ffffffffffffffffffffffffffffffffffffffff16021790555060a0820151816005015560c082015181600601559050507f9d33853d43e3607b4cc01fdc78338ff2dca6fef7db9232dae6d3eb55fbc3b109600454338686868642604051610bb297969594939291906111f8565b60405180910390a150505050565b600073ffffffffffffffffffffffffffffffffffffffff168273ffffffffffffffffffffffffffffffffffffffff1603610bf957600080fd5b80600260008473ffffffffffffffffffffffffffffffffffffffff1673ffffffffffffffffffffffffffffffffffffffff16815260200190815260200160002060003373ffffffffffffffffffffffffffffffffffffffff1673ffffffffffffffffffffffffffffffffffffffff168152602001908152602001600020541015610c8257600080fd5b80600260008473ffffffffffffffffffffffffffffffffffffffff1673ffffffffffffffffffffffffffffffffffffffff16815260200190815260200160002060003373ffffffffffffffffffffffffffffffffffffffff1673ffffffffffffffffffffffffffffffffffffffff16815260200190815260200160002054610d0a91906113cd565b600260008473ffffffffffffffffffffffffffffffffffffffff1673ffffffffffffffffffffffffffffffffffffffff16815260200190815260200160002060003373ffffffffffffffffffffffffffffffffffffffff1673ffffffffffffffffffffffffffffffffffffffff168152602001908152602001600020819055508173ffffffffffffffffffffffffffffffffffffffff1663a9059cbb33836040518363ffffffff1660e01b8152600401610dc5929190611401565b6020604051808303816000875af1158015610de4573d6000803e3d6000fd5b505050506040513d601f19601f82011682018060405250810190610e0891906112d6565b610e1157600080fd5b7ff341246adaac6f497bc2a656f546ab9e182111d630394f0c57c710a59a2cb567823383600260008773ffffffffffffffffffffffffffffffffffffffff1673ffffffffffffffffffffffffffffffffffffffff16815260200190815260200160002060003373ffffffffffffffffffffffffffffffffffffffff1673ffffffffffffffffffffffffffffffffffffffff16815260200190815260200160002054604051610ec29493929190611388565b60405180910390a15050565b60036020528060005260406000206000915090508060000154908060010160009054906101000a900473ffffffffffffffffffffffffffffffffffffffff16908060020160009054906101000a900473ffffffffffffffffffffffffffffffffffffffff16908060030154908060040160009054906101000a900473ffffffffffffffffffffffffffffffffffffffff16908060050154908060060154905087565b6000600260008473ffffffffffffffffffffffffffffffffffffffff1673ffffffffffffffffffffffffffffffffffffffff16815260200190815260200160002060008373ffffffffffffffffffffffffffffffffffffffff1673ffffffffffffffffffffffffffffffffffffffff16815260200190815260200160002054905092915050565b6000819050919050565b61100a81610ff7565b82525050565b60006020820190506110256000830184611001565b92915050565b600080fd5b600073ffffffffffffffffffffffffffffffffffffffff82169050919050565b600061105b82611030565b9050919050565b61106b81611050565b811461107657600080fd5b50565b60008135905061108881611062565b92915050565b61109781610ff7565b81146110a257600080fd5b50565b6000813590506110b48161108e565b92915050565b600080604083850312156110d1576110d061102b565b5b60006110df85828601611079565b92505060206110f0858286016110a5565b9150509250929050565b6000602082840312156111105761110f61102b565b5b600061111e848285016110a5565b91505092915050565b6000806040838503121561113e5761113d61102b565b5b600061114c85828601611079565b925050602061115d85828601611079565b9150509250929050565b61117081611050565b82525050565b600060208201905061118b6000830184611167565b92915050565b600080600080608085870312156111ab576111aa61102b565b5b60006111b987828801611079565b94505060206111ca878288016110a5565b93505060406111db87828801611079565b92505060606111ec878288016110a5565b91505092959194509250565b600060e08201905061120d600083018a611001565b61121a6020830189611167565b6112276040830188611167565b6112346060830187611001565b6112416080830186611167565b61124e60a0830185611001565b61125b60c0830184611001565b98975050505050505050565b600060608201905061127c6000830186611167565b6112896020830185611167565b6112966040830184611001565b949350505050565b60008115159050919050565b6112b38161129e565b81146112be57600080fd5b50565b6000815190506112d0816112aa565b92915050565b6000602082840312156112ec576112eb61102b565b5b60006112fa848285016112c1565b91505092915050565b7f4e487b7100000000000000000000000000000000000000000000000000000000600052601160045260246000fd5b600061133d82610ff7565b915061134883610ff7565b9250827fffffffffffffffffffffffffffffffffffffffffffffffffffffffffffffffff0382111561137d5761137c611303565b5b828201905092915050565b600060808201905061139d6000830187611167565b6113aa6020830186611167565b6113b76040830185611001565b6113c46060830184611001565b95945050505050565b60006113d882610ff7565b91506113e383610ff7565b9250828210156113f6576113f5611303565b5b828203905092915050565b60006040820190506114166000830185611167565b6114236020830184611001565b939250505056fea2646970667358221220685851644f542a163fc4006a9244d838b4c1beeb989de65efac9aec58e8bd1ad64736f6c634300080d0033",
  "immutableReferences": {},
  "source": "// SPDX-License-Identifier: MIT\npragma solidity 0.8.13;\n\nimport './Token.sol';\n\n// TODO:\n// [X] Set the fee account\n// [X] Deposit Ether\n// [X] Withdraw Ether\n// [X] Deposit tokens\n// [X] Withdraw tokens\n// [X] Check balances\n// [] Make order\n// [] Cancel order\n// [] Fill order\n// [] Charge fees\n\ncontract Exchange {\n\taddress public feeAccount; // the account that receives exchange fees\n\taddress constant ETHER = address(0); // store Ether in tokens mapping with blank address\n\tuint256 public feePercent; // the fee percentage\n\tmapping(address => mapping(address => uint256)) public tokens;\n\tmapping(uint256 => _Order) public orders;\n\tuint256 public orderCount;\n\n\t// Events\n\tevent Deposit(address token, address user, uint256 amount, uint256 balance);\n\tevent Withdraw(address token, address user, uint256 amount, uint256 balance);\n\tevent Order(\n\t\tuint id,\n\t\taddress user,\n\t\taddress tokenGet,\n\t\tuint amountGet,\n\t\taddress tokenGive,\n\t\tuint amountGive,\n\t\tuint timestamp\n\t);\n\n\tstruct _Order {\n\t\tuint id;\n\t\taddress user;\n\t\taddress tokenGet;\n\t\tuint amountGet;\n\t\taddress tokenGive;\n\t\tuint amountGive;\n\t\tuint timestamp;\n\t}\n\n\t// a way to model the order\n\t// a way store the order\n\t// add order to storage\n\n\tconstructor(address _feeAccount, uint256 _feePercent) {\n\t\tfeeAccount = _feeAccount;\n\t\tfeePercent = _feePercent;\n\t}\n\n\t// Fallback: reverts if Ether is sent to this smart contract by mistake\n\tfallback() external {\n\t\trevert();\n\t}\n\n\tfunction depositEther() payable public {\n\t\ttokens[ETHER][msg.sender] = tokens[ETHER][msg.sender] + msg.value;\n\t\temit Deposit(ETHER, msg.sender, msg.value, tokens[ETHER][msg.sender]);\n\t}\n\n\tfunction withdrawEther(uint256 _amount) public {\n\t\trequire(tokens[ETHER][msg.sender] >= _amount);\n\t\ttokens[ETHER][msg.sender] = tokens[ETHER][msg.sender] - _amount;\n\t\tpayable(msg.sender).transfer(_amount);\n\t\temit Withdraw(ETHER, msg.sender, _amount, tokens[ETHER][msg.sender]);\n\t}\n\n\tfunction depositToken(address _token, uint256 _amount) public {\n\t\trequire(_token != ETHER);\n\t\trequire(Token(_token).transferFrom(msg.sender, address(this), _amount));\n\t\ttokens[_token][msg.sender] = tokens[_token][msg.sender] + _amount;\n\t\temit Deposit(_token, msg.sender, _amount, tokens[_token][msg.sender]);\n\t}\n\n\tfunction withdrawToken(address _token, uint256 _amount) public {\n\t\trequire(_token != ETHER);\n\t\trequire(tokens[_token][msg.sender] >= _amount);\n\t\ttokens[_token][msg.sender] = tokens[_token][msg.sender] - _amount;\n\t\trequire(Token(_token).transfer(msg.sender, _amount));\n\t\temit Withdraw(_token, msg.sender, _amount, tokens[_token][msg.sender]);\n\t}\n\n\tfunction balanceOf(address _token, address _user) public view returns (uint256) {\n\t\treturn tokens[_token][_user];\n\t}\n\n\tfunction makeOrder(address _tokenGet, uint256 _amountGet, address _tokenGive, uint256 _amountGive) public {\n\t\torderCount = orderCount + 1;\n\t\torders[orderCount] = _Order(orderCount, msg.sender, _tokenGet, _amountGet, _tokenGive, _amountGive, block.timestamp);\n\t\temit Order(orderCount, msg.sender, _tokenGet, _amountGet, _tokenGive, _amountGive, block.timestamp);\n\t}\n}",
  "sourcePath": "/Users/trell/Projects/dapp-bootcamp/src/contracts/Exchange.sol",
  "compiler": {
    "name": "solc",
    "version": "0.8.13+commit.abaa5c0e.Emscripten.clang"
  },
  "schemaVersion": "3.4.6",
  "updatedAt": "2022-03-27T13:33:34.054Z",
  "devdoc": {
    "kind": "dev",
    "methods": {},
    "version": 1
  },
  "userdoc": {
    "kind": "user",
    "methods": {},
    "version": 1
  }
}